:100000000C942A000C9438020C9447000C94EA01DA
:100010000C9447000C9447000C9447000C94470044
:100020000C9447000C9447000C9447000C94470034
:100030000C9447000C9447000C9447000C94470024
:100040000C9447000C9447000C9447000C94470014
:100050000C94470011241FBECFE5D8E0DEBFCDBF12
:1000600010E0A0E6B0E0E6EDF8E002C005900D92E9
:10007000A236B107D9F710E0A2E6B0E001C01D92A8
:10008000A636B107E1F70E9468020C9469040C944B
:1000900000006091600070916100882777FD809575
:1000A000982F0E94DD032AE536E444E750E40E94DD
:1000B00042030E94AA03161617068CF480E090E013
:1000C00021E0EDEDF1E03197F1F728BBEDEDF1E046
:1000D0003197F1F718BA01968617970791F70895A7
:1000E0006091600070916100882777FD8095982F5E
:1000F0000E94DD032CEB30EA49E550E40E94420304
:100100000E94AA0316161706ACF480E090E021E0E6
:10011000E8EAF1E03197F1F700C0000028BBE8EA17
:10012000F1E03197F1F700C0000018BA0196861788
:10013000970771F7089560916000709161008827BA
:1001400077FD8095982F0E94DD0328E931EE41E488
:1001500050E40E9442030E94AA03161617069CF45C
:1001600080E090E021E0EAE7F1E03197F1F700C0AC
:1001700028BBEAE7F1E03197F1F700C018BA019621
:100180008617970781F7089560916000709161006C
:10019000882777FD8095982F0E94DD0321EE3FEFA1
:1001A00046E350E40E9442030E94AA031616170673
:1001B0009CF480E090E021E0E5E6F1E03197F1F792
:1001C000000028BBE5E6F1E03197F1F7000018BA2E
:1001D00001968617970781F70895609160007091E6
:1001E0006100882777FD8095982F0E94DD0329EB19
:1001F00038E043E250E40E9442030E94AA0316162C
:1002000017069CF480E090E021E0EEE3F1E0319706
:10021000F1F7000028BBEEE3F1E03197F1F70000C1
:1002200018BA01968617970781F7089560916000C4
:1002300070916100882777FD8095982F0E94DD03DB
:1002400020E33FE341E150E40E9442030E94AA03FD
:10025000161617069CF480E090E021E0EBE1F1E057
:100260003197F1F700C028BBEBE1F1E03197F1F7EE
:1002700000C018BA01968617970781F70895609114
:10028000600070916100882777FD8095982F0E940B
:10029000DD0325E736E641E050E40E9442030E9478
:1002A000AA03161617069CF480E090E021E0ECEF1C
:1002B000F0E03197F1F700C028BBECEFF0E03197A8
:1002C000F1F700C018BA01968617970781F70895CD
:1002D0006091600070916100882777FD8095982F6C
:1002E0000E94DD032AE536E444EF5FE30E94420307
:1002F0000E94AA03161617069CF480E090E021E005
:10030000EEEEF0E03197F1F700C028BBEEEEF0E042
:100310003197F1F700C018BA01968617970781F751
:100320000895E199FECF9FBB8EBB6DBBE29AE19A27
:100330000895E199FECF9FBB8EBBE09A8DB30895DF
:10034000CF93C82F813019F40E9449000AC082302F
:1003500019F40E9470000AC0833019F40E949B00B7
:100360000AC0C43019F40E94C4000AC0C53019F490
:100370000E94ED000AC0C63019F40E94160109C09F
:10038000C73019F40E943F0104C0C83011F40E9424
:100390006801CF9108951F93CF93DF93182FC4E680
:1003A000D0E0812F0E94A0012197D9F7DF91CF9152
:1003B0001F910895CF93DF93C0E0D0E0CE016FEF9F
:1003C0000E949101219683E0CF3FD807B9F7DF91D2
:1003D000CF9108951F920F920FB60F9211242F9371
:1003E0003F934F935F936F937F938F939F93AF93BD
:1003F000BF93EF93FF93209164003091650081E0FB
:1004000090E0821B930B90936500809364000097AB
:1004100059F4809162009091630069E00E9491011B
:1004200010926300109262008AB780628ABFFF91C7
:10043000EF91BF91AF919F918F917F916F915F915C
:100440004F913F912F910F900FBE0F901F901895D5
:10045000CF93DF93C0E0D0E0CE010E9499018930B4
:1004600021F00E94A0012196F7CFDF91CF9108954E
:100470001F920F920FB60F9211242F933F934F9319
:100480005F936F937F938F939F93AF93BF93EF93FC
:10049000FF938FE39DE0A3E081509040A040E1F7FF
:1004A00000C000000E9428028AB780648ABFFF91C2
:1004B000EF91BF91AF919F918F917F916F915F91DC
:1004C0004F913F912F910F900FBE0F901F90189555
:1004D00081E087BB8BB780628BBF8BB780648BBF9B
:1004E00085B7836085BF84B7806484BF1ABA789467
:1004F00099B390FF17C080916400909165000097B8
:1005000071F080916200909163009C012F5F3F4FDA
:10051000309363002093620061E00E9491010E9489
:100520004900E6CF91FF17C080916400909165006B
:10053000009771F080916200909163009C012F5FA1
:100540003F4F309363002093620062E00E9491016C
:100550000E947000CDCF92FF17C0809164009091EF
:100560006500009771F080916200909163009C019A
:100570002F5F3F4F309363002093620063E00E943F
:1005800091010E949B00B4CF93FF17C0809164003B
:1005900090916500009771F08091620090916300E6
:1005A0009C012F5F3F4F309363002093620064E013
:1005B0000E9491010E94C4009BCF94FF17C08091BC
:1005C000640090916500009771F0809162009091B5
:1005D00063009C012F5F3F4F3093630020936200C4
:1005E00065E00E9491010E94ED0082CF95FF17C047
:1005F0008091640090916500009771F08091620095
:10060000909163009C012F5F3F4F309363002093D4
:10061000620066E00E9491010E94160169CF96FF78
:1006200017C08091640090916500009771F08091EF
:100630006200909163009C012F5F3F4F30936300F5
:100640002093620067E00E9491010E943F0150CF19
:1006500099230CF04DCF8091640090916500009734
:1006600071F080916200909163009C012F5F3F4F79
:10067000309363002093620068E00E9491010E9421
:10068000680136CF0CD0EBC0E3D040F0DAD030F0C8
:1006900021F45F3F19F0CCC0511115C1CFC0F0D08B
:1006A00098F39923C9F35523B1F3951B550BBB2739
:1006B000AA2762177307840738F09F5F5F4F220FE6
:1006C000331F441FAA1FA9F333D00E2E3AF0E0E8DF
:1006D00030D091505040E695001CCAF729D0FE2F2B
:1006E00027D0660F771F881FBB1F261737074807BD
:1006F000AB07B0E809F0BB0B802DBF01FF27935873
:100700005F4F2AF09E3F510568F092C0DCC05F3F0A
:10071000ECF3983EDCF3869577956795B795F7955A
:100720009F5FC9F7880F911D9695879597F9089552
:10073000E1E0660F771F881FBB1F621773078407EE
:10074000BA0720F0621B730B840BBA0BEE1F88F7FD
:10075000E095089504D06894B111B5C0089598D07B
:1007600088F09F5790F0B92F9927B751A0F0D1F09A
:10077000660F771F881F991F1AF0BA95C9F712C024
:10078000B13081F09FD0B1E008959CC0672F782FE1
:100790008827B85F39F0B93FCCF386957795679590
:1007A000B395D9F73EF490958095709561957F4FFC
:1007B0008F4F9F4F0895E89409C097FB3EF49095A2
:1007C0008095709561957F4F8F4F9F4F9923A9F02A
:1007D000F92F96E9BB279395F695879577956795B9
:1007E000B795F111F8CFFAF4BB0F11F460FF1BC0FD
:1007F0006F5F7F4F8F4F9F4F16C0882311F096E990
:1008000011C0772321F09EE8872F762F05C066233D
:1008100071F096E8862F70E060E02AF09A95660FF6
:10082000771F881FDAF7880F9695879597F90895AF
:1008300097F99F6780E870E060E008959FEF80EC93
:10084000089500240A941616170618060906089536
:1008500000240A9412161306140605060895092E9C
:100860000394000C11F4882352F0BB0F40F4BF2B0B
:1008700011F460FF04C06F5F7F4F8F4F9F4F08954B
:1008800057FD9058440F551F59F05F3F71F0479541
:10089000880F97FB991F61F09F3F79F08795089526
:1008A000121613061406551FF2CF4695F1DF08C045
:1008B000161617061806991FF1CF86957105610562
:1008C00008940895E894BB2766277727CB0197F90A
:0608D0000895F894FFCF2B
:0208D6000A0016
:00000001FF
