:100000000C942A000C9447000C9447000C94470071
:100010000C9447000C9447000C9447000C94470044
:100020000C9447000C9447000C9447000C94470034
:100030000C9447000C9447000C9447000C94470024
:100040000C9447000C9447000C9447000C94470014
:100050000C94470011241FBECFE5D8E0DEBFCDBF12
:1000600010E0A0E6B0E0ECECF5E002C005900D92E7
:10007000A236B107D9F710E0A2E6B0E001C01D92A8
:10008000A236B107E1F70E9491010C94E4020C94AE
:1000900000006091600070916100882777FD809575
:1000A000982F0E9458022AE536E444E750E40E9463
:1000B000BD010E942502161617068CF480E090E020
:1000C00021E0EDEDF1E03197F1F728BBEDEDF1E046
:1000D0003197F1F718BA01968617970791F70895A7
:1000E0006091600070916100882777FD8095982F5E
:1000F0000E9458022CEB30EA49E550E40E94BD0111
:100100000E94250216161706ACF480E090E021E06C
:10011000E8EAF1E03197F1F700C0000028BBE8EA17
:10012000F1E03197F1F700C0000018BA0196861788
:10013000970771F7089560916000709161008827BA
:1001400077FD8095982F0E94580228E931EE41E40E
:1001500050E40E94BD010E942502161617069CF469
:1001600080E090E021E0EAE7F1E03197F1F700C0AC
:1001700028BBEAE7F1E03197F1F700C018BA019621
:100180008617970781F7089560916000709161006C
:10019000882777FD8095982F0E94580221EE3FEF27
:1001A00046E350E40E94BD010E9425021616170680
:1001B0009CF480E090E021E0E5E6F1E03197F1F792
:1001C000000028BBE5E6F1E03197F1F7000018BA2E
:1001D00001968617970781F70895609160007091E6
:1001E0006100882777FD8095982F0E94580229EB9F
:1001F00038E043E250E40E94BD010E942502161639
:1002000017069CF480E090E021E0EEE3F1E0319706
:10021000F1F7000028BBEEE3F1E03197F1F70000C1
:1002200018BA01968617970781F7089560916000C4
:1002300070916100882777FD8095982F0E94580261
:1002400020E33FE341E150E40E94BD010E9425020A
:10025000161617069CF480E090E021E0EBE1F1E057
:100260003197F1F700C028BBEBE1F1E03197F1F7EE
:1002700000C018BA01968617970781F70895609114
:10028000600070916100882777FD8095982F0E940B
:10029000580225E736E641E050E40E94BD010E9485
:1002A0002502161617069CF480E090E021E0ECEFA2
:1002B000F0E03197F1F700C028BBECEFF0E03197A8
:1002C000F1F700C018BA01968617970781F70895CD
:1002D0006091600070916100882777FD8095982F6C
:1002E0000E9458022AE536E444EF5FE30E94BD0114
:1002F0000E942502161617069CF480E090E021E08B
:10030000EEEEF0E03197F1F700C028BBEEEEF0E042
:100310003197F1F700C018BA01968617970781F751
:1003200008958FEF87BB1ABA99B390FF03C00E945C
:100330004900FACF91FF03C00E947000F5CF92FFF1
:1003400003C00E949B00F0CF93FF03C00E94C40033
:10035000EBCF94FF03C00E94ED00E6CF95FF03C0F2
:100360000E941601E1CF96FF03C00E943F01DCCF3F
:100370009923D4F60E946801D7CF0CD0EBC0E3D00C
:1003800040F0DAD030F021F45F3F19F0CCC05111C9
:1003900015C1CFC0F0D098F39923C9F35523B1F319
:1003A000951B550BBB27AA2762177307840738F0E4
:1003B0009F5F5F4F220F331F441FAA1FA9F333D043
:1003C0000E2E3AF0E0E830D091505040E695001CF7
:1003D000CAF729D0FE2F27D0660F771F881FBB1FB3
:1003E000261737074807AB07B0E809F0BB0B802D8D
:1003F000BF01FF2793585F4F2AF09E3F510568F0D9
:1004000092C0DCC05F3FECF3983EDCF386957795B5
:100410006795B795F7959F5FC9F7880F911D9695DA
:10042000879597F90895E1E0660F771F881FBB1F36
:10043000621773078407BA0720F0621B730B840BE3
:10044000BA0BEE1F88F7E095089504D06894B111B7
:10045000B5C0089598D088F09F5790F0B92F99278C
:10046000B751A0F0D1F0660F771F881F991F1AF0BF
:10047000BA95C9F712C0B13081F09FD0B1E00895AC
:100480009CC0672F782F8827B85F39F0B93FCCF32D
:10049000869577956795B395D9F73EF490958095B5
:1004A000709561957F4F8F4F9F4F0895E89409C0D5
:1004B00097FB3EF490958095709561957F4F8F4F97
:1004C0009F4F9923A9F0F92F96E9BB279395F695AD
:1004D000879577956795B795F111F8CFFAF4BB0F2B
:1004E00011F460FF1BC06F5F7F4F8F4F9F4F16C08F
:1004F000882311F096E911C0772321F09EE8872F19
:10050000762F05C0662371F096E8862F70E060E0D4
:100510002AF09A95660F771F881FDAF7880F96954D
:10052000879597F9089597F99F6780E870E060E0F4
:1005300008959FEF80EC089500240A94161617067C
:1005400018060906089500240A94121613061406C4
:1005500005060895092E0394000C11F4882352F027
:10056000BB0F40F4BF2B11F460FF04C06F5F7F4FDF
:100570008F4F9F4F089557FD9058440F551F59F0C6
:100580005F3F71F04795880F97FB991F61F09F3F80
:1005900079F087950895121613061406551FF2CFA9
:1005A0004695F1DF08C0161617061806991FF1CFF9
:1005B00086957105610508940895E894BB27662720
:0C05C0007727CB0197F90895F894FFCF3E
:0205CC000A0023
:00000001FF
