:100000000C942A000C943C030C9447000C94EE02D0
:100010000C9447000C9447000C9447000C94470044
:100020000C9447000C9447000C9447000C94470034
:100030000C9447000C9447000C9447000C94470024
:100040000C9447000C9447000C9447000C94470014
:100050000C94470011241FBECFE5D8E0DEBFCDBF12
:1000600010E0A0E6B0E0E6E4FDE002C005900D92ED
:10007000A236B107D9F710E0A2E6B0E001C01D92A8
:10008000A636B107E1F70E946C030C94A1060C940C
:1000900000006091600070916100882777FD809575
:1000A000982F0E948A052AE536E444EF5FE30E9418
:1000B000EF040E9457058EEF85BB161617069CF4B9
:1000C00080E090E021E0EEEEF0E03197F1F700C043
:1000D00028BBEEEEF0E03197F1F700C018BA0196B8
:1000E0008617970781F78FEF85BB089560916000B1
:1000F00070916100882777FD8095982F0E948A056E
:1001000020E930E946EE5FE30E94EF040E945705C4
:1001100082E085BB161617068CF480E090E021E0A3
:10012000E1EEF0E03197F1F728BBE1EEF0E0319736
:10013000F1F718BA01968617970791F78FEF85BBED
:1001400008956091600070916100882777FD809527
:10015000982F0E948A0526EC3FE949ED5FE30E9453
:10016000EF040E9457058DEF85BB161617069CF409
:1001700080E090E021E0E4EDF0E03197F1F700C09D
:1001800028BBE4EDF0E03197F1F700C018BA019612
:100190008617970781F78FEF85BB08956091600000
:1001A00070916100882777FD8095982F0E948A05BD
:1001B00029EE38E64DEC5FE30E94EF040E945705FC
:1001C00084E085BB161617069CF480E090E021E0E1
:1001D000E8ECF0E03197F1F700C028BBE8ECF0E084
:1001E0003197F1F700C018BA01968617970781F783
:1001F0008FEF85BB08956091600070916100882742
:1002000077FD8095982F0E948A052CE831EE41EC0D
:100210005FE30E94EF040E9457058BEF85BB161623
:1002200017068CF480E090E021E03CEF3A95F1F77E
:1002300000C028BB3CEF3A95F1F700C018BA019610
:100240008617970791F78FEF85BB0895609160003F
:1002500070916100882777FD8095982F0E948A050C
:1002600027E73AEB4CEA5FE30E94EF040E94570550
:1002700088E085BB161617067CF480E090E021E04C
:1002800031EE3A95F1F728BB31EE3A95F1F718BA0D
:10029000019686179707A1F78FEF85BB08956091A8
:1002A000600070916100882777FD8095982F0E94EB
:1002B0008A0525ED3FEF46EB5FE30E94EF040E94C5
:1002C000570587EF85BB161617068CF480E090E083
:1002D00021E03EEE3A95F1F7000028BB3EEE3A955C
:1002E000F1F7000018BA01968617970791F78FEF7C
:1002F00085BB08956091600070916100882777FD4B
:100300008095982F0E948A052CEA38E043EA5FE343
:100310000E94EF040E9457058FEE85BB1616170644
:100320008CF480E090E021E034ED3A95F1F70000A4
:1003300028BB34ED3A95F1F7000018BA01968617FC
:10034000970791F78FEF85BB0895609160007091DA
:100350006100882777FD8095982F0E948A052CE2FE
:1003600032EE49E95FE30E94EF040E94570580E204
:1003700085BB161617068CF480E090E021E038EC7F
:100380003A95F1F700C028BB38EC3A95F1F700C078
:1003900018BA01968617970791F78FEF85BB0895D6
:1003A0006091600070916100882777FD8095982F9B
:1003B0000E948A0526E23FE341E95FE30E94EF04E1
:1003C0000E9457058FED85BB161617068CF480E04A
:1003D00090E021E03DEB3A95F1F7000028BB3DEBC2
:1003E0003A95F1F7000018BA01968617970791F72A
:1003F0008FEF85BB08956091600070916100882740
:1004000077FD8095982F0E948A0528E338E149E816
:100410005FE30E94EF040E94570580E485BB161637
:1004200017068CF480E090E021E032EB3A95F1F78A
:1004300000C028BB32EB3A95F1F700C018BA01961C
:100440008617970791F78FEF85BB0895609160003D
:1004500070916100882777FD8095982F0E948A050A
:100460002BE636E641E85FE30E94EF040E94570561
:100470008FEB85BB161617068CF480E090E021E028
:1004800038EA3A95F1F700C028BB38EA3A95F1F717
:1004900000C018BA01968617970791F78FEF85BBB2
:1004A00008956091600070916100882777FD8095C4
:1004B000982F0E948A052AE536E444E75FE30E940C
:1004C000EF040E9457058FE785BB161617068CF4BC
:1004D00080E090E021E03FE93A95F1F7000028BB89
:1004E0003FE93A95F1F7000018BA01968617970789
:1004F00091F78FEF85BB0895E199FECF9FBB8EBB2F
:100500006DBBE29AE19A0895E199FECF9FBB8EBB45
:10051000E09A8DB30895CF93C82F813019F40E94CB
:1005200049000AC0823019F40E94A1000AC0833039
:1005300019F40E94FB000AC0C43019F40E944F0154
:100540000AC0C53019F40E947A010AC0C63019F4F5
:100550000E94D0010AC0C73019F40E9426020AC0C6
:10056000C83019F40E9451020AC0CA3019F40E941E
:1005700076000AC0CB3019F40E94CE000AC0CC30FD
:1005800019F40E94260109C0CD3019F40E94A5017A
:1005900004C0CE3011F40E94FB01CF9108951F9347
:1005A000CF93DF93182FC4E6D0E0812F0E948B02F7
:1005B0002197D9F7DF91CF911F910895CF93DF93C2
:1005C000C0E0D0E0CE016FEF0E947C02219683E074
:1005D000CF3FD807B9F7DF91CF9108951F920F92BF
:1005E0000FB60F9211242F933F934F935F936F9306
:1005F0007F938F939F93AF93BF93EF93FF9320913C
:1006000064003091650081E090E0821B930B909331
:10061000650080936400009759F480916200909186
:10062000630069E00E947C021092630010926200F5
:100630008AB780628ABFFF91EF91BF91AF919F917E
:100640008F917F916F915F914F913F912F910F907B
:100650000FBE0F901F901895CF93DF93C0E0D0E0AE
:10066000CE010E948402893021F00E948B022196E3
:10067000F7CFDF91CF9108951F920F920FB60F928F
:1006800011242F933F934F935F936F937F938F9397
:100690009F93AF93BF93EF93FF938FE39DE0A3E00E
:1006A00081509040A040E1F700C000000E942C0360
:1006B0008AB780648ABFFF91EF91BF91AF919F91FC
:1006C0008F917F916F915F914F913F912F910F90FB
:1006D0000FBE0F901F90189581E087BB8BB780628B
:1006E0008BBF8BB780648BBF85B7836085BF84B7B2
:1006F000806484BF1ABA8FEF84BB94B7906894BFAC
:1007000094B7906894BF85BB80E287B980E886B9CA
:100710007894CFEF369A3699FECF65B119B300B30E
:1007200010FD19C070E080E090E00E948A0520E092
:1007300030E040E85BE30E941A0628E431EE4AE428
:1007400050E40E941A062DEC3CEC4CE85FE30E945A
:1007500016061816BCF4809164009091650000970D
:1007600071F080916200909163009C012F5F3F4F78
:10077000309363002093620061E00E947C020E943B
:1007800049002BC111FF17C0809164009091650052
:10079000009771F080916200909163009C012F5F3F
:1007A0003F4F309363002093620062E00E947C021E
:1007B0000E94A10012C112FF17C0809164009091A5
:1007C0006500009771F080916200909163009C0138
:1007D0002F5F3F4F309363002093620063E00E94DD
:1007E0007C020E94FB00F9C013FF17C080916400D7
:1007F00090916500009771F0809162009091630084
:100800009C012F5F3F4F309363002093620064E0B0
:100810000E947C020E944F01E0C014FF17C080912B
:10082000640090916500009771F080916200909152
:1008300063009C012F5F3F4F309363002093620061
:1008400065E00E947C020E947A01C7C015FF17C0B4
:100850008091640090916500009771F08091620032
:10086000909163009C012F5F3F4F30936300209372
:10087000620066E00E947C020E94D001AEC016FFBA
:1008800017C08091640090916500009771F080918D
:100890006200909163009C012F5F3F4F3093630093
:1008A0002093620067E00E947C020E94260295C0AD
:1008B0001123BCF48091640090916500009771F061
:1008C00080916200909163009C012F5F3F4F3093B5
:1008D00063002093620068E00E947C020E94510243
:1008E0007CC003FF17C08091640090916500009761
:1008F00071F080916200909163009C012F5F3F4FE7
:1009000030936300209362006AE00E947C020E94A0
:10091000760063C004FF17C0809164009091650069
:10092000009771F080916200909163009C012F5FAD
:100930003F4F30936300209362006BE00E947C0283
:100940000E94CE004AC005FF17C0809164009091BC
:100950006500009771F080916200909163009C01A6
:100960002F5F3F4F30936300209362006CE00E9442
:100970007C020E94260131C006FF17C080916400EE
:1009800090916500009771F08091620090916300F2
:100990009C012F5F3F4F30936300209362006DE016
:1009A0000E947C020E94A50118C00023B4F480912B
:1009B000640090916500009771F0809162009091C1
:1009C00063009C012F5F3F4F3093630020936200D0
:1009D0006EE00E947C020E94FB01C5BB9BCE0CD046
:1009E000EBC0E3D040F0DAD030F021F45F3F19F0F3
:1009F000CCC0511115C1CFC0F0D098F39923C9F3E1
:100A00005523B1F3951B550BBB27AA276217730714
:100A1000840738F09F5F5F4F220F331F441FAA1FC8
:100A2000A9F333D00E2E3AF0E0E830D09150504088
:100A3000E695001CCAF729D0FE2F27D0660F771F36
:100A4000881FBB1F261737074807AB07B0E809F018
:100A5000BB0B802DBF01FF2793585F4F2AF09E3FAD
:100A6000510568F092C0DCC05F3FECF3983EDCF3C8
:100A7000869577956795B795F7959F5FC9F7880F26
:100A8000911D9695879597F90895E1E0660F771F78
:100A9000881FBB1F621773078407BA0720F0621B09
:100AA000730B840BBA0BEE1F88F7E095089504D002
:100AB0006894B111B5C0089598D088F09F5790F010
:100AC000B92F9927B751A0F0D1F0660F771F881F73
:100AD000991F1AF0BA95C9F712C0B13081F09FD0B2
:100AE000B1E008959CC0672F782F8827B85F39F050
:100AF000B93FCCF3869577956795B395D9F73EF4D2
:100B000090958095709561957F4F8F4F9F4F089579
:100B1000E89409C097FB3EF4909580957095619597
:100B20007F4F8F4F9F4F9923A9F0F92F96E9BB274D
:100B30009395F695879577956795B795F111F8CFC9
:100B4000FAF4BB0F11F460FF1BC06F5F7F4F8F4F34
:100B50009F4F16C0882311F096E911C0772321F02A
:100B60009EE8872F762F05C0662371F096E8862FC2
:100B700070E060E02AF09A95660F771F881FDAF719
:100B8000880F9695879597F9089597F99F6780E85C
:100B900070E060E008959FEF80EC089500240A94CF
:100BA0001616170618060906089500240A94121648
:100BB0001306140605060895092E0394000C11F47B
:100BC000882352F0BB0F40F4BF2B11F460FF04C028
:100BD0006F5F7F4F8F4F9F4F089557FD9058440F81
:100BE000551F59F05F3F71F04795880F97FB991F8C
:100BF00061F09F3F79F08795089512161306140649
:100C0000551FF2CF4695F1DF08C0161617061806D5
:100C1000991FF1CF86957105610508940895E894B0
:100C2000BB2766277727CB0197F9089566D008F48C
:100C30008FEF08950BD0C0CFB1DF28F0B6DF18F0EA
:100C4000952309F0A2CFA7CF1124EACFC6DFA0F3E6
:100C5000959FD1F3950F50E0551F629FF001729F51
:100C6000BB27F00DB11D639FAA27F00DB11DAA1F70
:100C7000649F6627B00DA11D661F829F2227B00DBD
:100C8000A11D621F739FB00DA11D621F839FA00D48
:100C9000611D221F749F3327A00D611D231F849F98
:100CA000600D211D822F762F6A2F11249F575040EF
:100CB0008AF0E1F088234AF0EE0FFF1FBB1F661F8A
:100CC000771F881F91505040A9F79E3F510570F043
:100CD0005CCFA6CF5F3FECF3983EDCF3869577952B
:100CE0006795B795F795E7959F5FC1F7FE2B880F3E
:100CF000911D9695879597F90895990F0008550FBE
:100D0000AA0BE0E8FEEF16161706E807F907C0F091
:100D100012161306E407F50798F0621B730B840B99
:100D2000950B39F40A2661F0232B242B252B21F473
:100D300008950A2609F4A140A6958FEF811D811D13
:060D40000895F894FFCFB6
:020D46000A00A1
:00000001FF
